:100000000C942A000C9447000C9447000C94470071
:100010000C9447000C9447000C940E050C94BC04FF
:100020000C94E5040C9493040C9447000C94470042
:100030000C9447000C9447050C9447000C947005F1
:100040000C9447000C9447000C9447000C94470014
:100050000C94470011241FBECFE5D8E0DEBFCDBF12
:1000600010E0A0E6B0E0E8E7FBE002C005900D92EA
:10007000AC3FB107D9F721E0ACEFB0E001C01D9271
:10008000AD31B207E1F70E94B4010C94BA050C94AB
:100090000000CF93C82F60E081E00E9414036C2F12
:1000A000661F6627661F86E00E941403C6FB66274C
:1000B00060F985E00E941403C5FB662760F984E0BF
:1000C0000E941403C4FB662760F983E00E941403B6
:1000D00061E082E00E9414038FEC97E00197F1F752
:1000E00000C0000060E082E00E9414038FEC97E003
:1000F0000197F1F700C00000C3FB662760F986E0B6
:100100000E941403C2FB662760F985E00E94140375
:10011000C1FB662760F984E00E9414036C2F6170B4
:1001200083E00E94140361E082E00E9414038FECDC
:1001300097E00197F1F700C0000060E082E00E94C4
:1001400014038FEC97E00197F1F700C00000CF9106
:100150000895CF93C82F61E081E00E9414036C2FB3
:10016000661F6627661F86E00E941403C6FB66278B
:1001700060F985E00E941403C5FB662760F984E0FE
:100180000E941403C4FB662760F983E00E941403F5
:1001900061E082E00E9414038FEC97E00197F1F791
:1001A00000C0000060E082E00E9414038FEC97E042
:1001B0000197F1F700C00000C3FB662760F986E0F5
:1001C0000E941403C2FB662760F985E00E941403B5
:1001D000C1FB662760F984E00E9414036C2F6170F4
:1001E00083E00E94140361E082E00E9414038FEC1C
:1001F00097E00197F1F700C0000060E082E00E9404
:1002000014038FEC97E00197F1F700C00000CF9145
:1002100008952FE788E391E0215080409040E1F776
:1002200000C0000082E00E94490088E20E9449006C
:100230008CE00E94490081E00E9449008FEC97E029
:100240000197F1F700C0000086E00E944900089580
:100250000F931F93CF938C01C0E003C00E94A900AD
:10026000CF5FF801EC0FF11D80818111F7CFCF91A5
:100270001F910F910895811105C0862F80680E94FB
:1002800049000895813021F480EC860F0E944900D6
:10029000089581E00E944900089562E083E00E9491
:1002A000A90382E00E94D30362E083E00E94F70387
:1002B00082E00E946F0482E00E944B048FEF90E086
:1002C00097BD86BD089590E0FC01EE0FFF1F8E0FD5
:1002D0009F1FFC01EE58FF4F808190E09BBD8ABDBF
:1002E000818190E099BD88BD82818CBF0895CF93B4
:1002F000C0E020E030E033C0EC2FF0E0EE0FFF1F55
:10030000E60FF71F20813181F901E40FF51F2081ED
:10031000A2131CC0BF5F21E030E001C0B0E04B2F52
:1003200050E0FC01E40FF51FA081A111E5CFEC2FF7
:10033000F0E0EE0FFF1FE60FF71F0190F081E02DB8
:10034000E40FF51FE081E111D7CF02C020E030E0DB
:100350002130310519F4C093FC0003C0CF5FC930D0
:10036000E8F2C901CF9108950E9499030E94090102
:100370000E944D010E94370562E080E00E943B012F
:100380008DE890E00E94280189E091E00E949905A3
:1003900060E670E089E091E00E947701892B09F125
:1003A0008091FC0090E00E94630160E081E00E9487
:1003B0003B0189E091E00E94280182EA90E00E94DE
:1003C000280120E005C0FC01E75FFE4F10822F5F8F
:1003D000822F90E0FC01E75FFE4F30813111F3CFB7
:1003E000CBCF0E94490160E080E00E943B018AE996
:1003F00090E00E94280180EA90E00E9428018BE2B0
:1004000091E00197F1F700C000000E94490120E04F
:1004100005C0FC01E75FFE4F10822F5F822F90E046
:10042000FC01E75FFE4F30813111F3CFA5CF982F4C
:100430009695969596958770613009F455C020F091
:10044000623009F4A1C008959130C1F028F09230D3
:1004500039F19330B9F108954AB321E030E0B901A0
:1004600002C0660F771F8A95E2F7CB01942F982B75
:100470009ABB9BB3809589238BBB089547B321E03A
:1004800030E0B90102C0660F771F8A95E2F7CB0111
:10049000942F982B97BB98B38095892388BB089598
:1004A00044B321E030E0B90102C0660F771F8A959E
:1004B000E2F7CB01942F982B94BB95B380958923B9
:1004C00085BB089541B321E030E0B90102C0660F59
:1004D000771F8A95E2F7CB01942F982B91BB92B3AB
:1004E0008095892382BB08959130C1F028F0923025
:1004F00039F19330B9F108954AB321E030E0B90100
:1005000002C0660F771F8A95E2F7CB018095942F82
:1005100098239ABB9BB389238BBB089547B321E0F3
:1005200030E0B90102C0660F771F8A95E2F7CB0170
:100530008095942F982397BB98B3892388BB0895FF
:1005400044B321E030E0B90102C0660F771F8A95FD
:10055000E2F7CB018095942F982394BB95B3892320
:1005600085BB089541B321E030E0B90102C0660FB8
:10057000771F8A95E2F7CB018095942F982391BB42
:1005800092B3892382BB08959130C1F028F0923054
:1005900039F19330B9F108954AB321E030E0B9015F
:1005A00002C0660F771F8A95E2F7CB01962F9095D0
:1005B00094239ABB9BB3892B8BBB089547B321E04F
:1005C00030E0B90102C0660F771F8A95E2F7CB01D0
:1005D000962F9095942397BB98B3892B88BB089549
:1005E00044B321E030E0B90102C0660F771F8A955D
:1005F000E2F7CB01962F9095942394BB95B3892B6A
:1006000085BB089541B321E030E0B90102C0660F17
:10061000771F8A95E2F7CB01962F9095942391BB93
:1006200092B3892B82BB0895982F969596959695AF
:1006300087706130E1F5913099F028F09230E9F05F
:10064000933041F108954BB321E030E0B90102C08D
:10065000660F771F8A95E2F7CB01842B8BBB089539
:1006600048B321E030E0B90102C0660F771F8A95D8
:10067000E2F7CB01842B88BB089545B321E030E03D
:10068000B90102C0660F771F8A95E2F7CB01842B70
:1006900085BB089542B321E030E0B90102C0660F86
:1006A000771F8A95E2F7CB01842B82BB08956111F5
:1006B0003FC09130A1F028F09230F9F0933059F119
:1006C00008954BB321E030E0B90102C0660F771FF7
:1006D0008A95E2F7CB01809584238BBB089548B3BC
:1006E00021E030E0B90102C0660F771F8A95E2F77A
:1006F000CB018095842388BB089545B321E030E089
:10070000B90102C0660F771F8A95E2F7CB01809589
:10071000842385BB089542B321E030E0B90102C0D3
:10072000660F771F8A95E2F7CB018095842382BB01
:100730000895CF93C0E009C0EC2FF0E0E552FF4FE1
:1007400060818C2F0E941702CF5FC032A8F3CF9137
:100750000895813069F028F0823089F08330B1F05B
:100760001BC083B78F7B83BF83B7877F83BF14C0D2
:1007700083B7806483BF83B7877F83BF0DC083B790
:100780008F7B83BF83B7886083BF06C083B78064D5
:1007900083BF83B7886083BF83B7887F83BF83B7F6
:1007A000682B63BF0895813069F028F0823089F0AA
:1007B0008330B1F0089583B78F7E83BF83B78F7D79
:1007C00083BF089583B7806183BF83B78F7D83BF65
:1007D000089583B78F7E83BF83B7806283BF0895F8
:1007E00083B7806183BF83B7806283BF08958230FF
:1007F00029F128F4882341F0813099F045C08330F5
:1008000051F18430A9F140C08FB58E7F8FBD8FB577
:100810008D7F8FBD8EB5877F8EBD8EB58F7E8EBD51
:1008200033C08FB58E7F8FBD8FB58D7F8FBD8EB559
:1008300088608EBD8EB580618EBD26C08FB58E7FDF
:100840008FBD8FB58D7F8FBD8EB588608EBD8EB507
:100850008F7E8EBD19C08FB58E7F8FBD8FB58260A4
:100860008FBD8EB588608EBD8EB580618EBD0CC08B
:100870008FB581608FBD8FB582608FBD8EB588606A
:100880008EBD8EB580618EBD8EB5887F8EBD8EB5D6
:10089000682B6EBD0895813069F028F0823089F0B0
:1008A0008330B1F008958FB58F7B8FBD8FB58F7773
:1008B0008FBD08958FB580648FBD8FB58F778FBD45
:1008C00008958FB58F7B8FBD8FB580688FBD0895DC
:1008D0008FB580648FBD8FB580688FBD08958130DE
:1008E00069F028F0823089F08330B1F008958FB537
:1008F0008F7E8FBD8FB58F7D8FBD08958FB5806141
:100900008FBD8FB58F7D8FBD08958FB58F7E8FBDC5
:100910008FB580628FBD08958FB580618FBD8FB513
:1009200080628FBD08951F920F920FB60F9211240F
:100930002F933F934F935F936F937F938F939F93E7
:10094000AF93BF93EF93FF93E0910301F091040104
:10095000309709F00995FF91EF91BF91AF919F9169
:100960008F917F916F915F914F913F912F910F9058
:100970000FBE0F901F9018951F920F920FB60F92F7
:1009800011242F933F934F935F936F937F938F9394
:100990009F93AF93BF93EF93FF93E0910101F09189
:1009A0000201309709F00995FF91EF91BF91AF9146
:1009B0009F918F917F916F915F914F913F912F9177
:1009C0000F900FBE0F901F9018951F920F920FB6A9
:1009D0000F9211242F933F934F935F936F937F93C5
:1009E0008F939F93AF93BF93EF93FF93E091FF009B
:1009F000F0910001309709F00995FF91EF91BF91B7
:100A0000AF919F918F917F916F915F914F913F91A6
:100A10002F910F900FBE0F901F9018951F920F925D
:100A20000FB60F9211242F933F934F935F936F93C1
:100A30007F938F939F93AF93BF93EF93FF93E09137
:100A4000FD00F091FE00309709F00995FF91EF91BC
:100A5000BF91AF919F918F917F916F915F914F91D6
:100A60003F912F910F900FBE0F901F90189583E329
:100A700089B98BB18D7F8BB98AB188608AB98AB107
:100A800080618AB908955F9BFECF8CB108951F9253
:100A90000F920FB60F9211242F933F934F935F93B2
:100AA0006F937F938F939F93AF93BF93EF93FF9336
:100AB000E0910701F0910801309709F00995FF9145
:100AC000EF91BF91AF919F918F917F916F915F91C6
:100AD0004F913F912F910F900FBE0F901F9018953F
:100AE0001F920F920FB60F9211242F933F934F93A3
:100AF0005F936F937F938F939F93AF93BF93EF9386
:100B0000FF93E0910501F0910601309709F00995F6
:100B1000FF91EF91BF91AF919F918F917F916F91D5
:100B20005F914F913F912F910F900FBE0F901F90AB
:100B30001895EF92FF920F931F93CF938C010E9411
:100B40004305F8018083C0E008C0CF5F7801EC0E58
:100B5000F11C0E944305F7018083F801EC0FF11DA1
:100B600080818D3091F71082CF911F910F91FF906E
:080B7000EF900895F894FFCF07
:100B7800A700AB00C400B100B800BE00C900CE0099
:100B8800D500FF000000FF000000FF64C800C89601
:100B98009600503C64003C141EC8000A14454E548C
:100BA800455220434F4C4F5220006572726F7200BD
:100BB8002020202020200052454400475245454E21
:100BC8000059454C4C4F57005748495445004C492B
:100BD80047485420424C55450050494E4B0050550B
:100BE80052504C4500424C41434B0001000000006C
:100BF80000000100000000000000000202020200E4
:0C0C0800000000020202020000010200D5
:00000001FF
