S00B00005247422E737265633E
S11300000C942A000C9447000C9447000C9447006D
S11300100C9447000C9447000C9447000C94470040
S11300200C9447000C9447000C9447000C94470030
S11300300C9447000C9447000C9447000C94470020
S11300400C9447000C9447000C9447000C94470010
S11300500C94470011241FBECFE5D8E0DEBFCDBF0E
S113006010E0A0E6B0E0E4E8F8E002C005900D92EC
S1130070AC3FB107D9F721E0ACEFB0E001C01D926D
S1130080A231B207E1F70E94A8010C9440040C9439
S11300900000CF93C82F60E081E00E9409026C2F1A
S11300A0661F6627661F86E00E940902C6FB662754
S11300B060F985E00E940902C5FB662760F984E0C7
S11300C00E940902C4FB662760F983E00E940902CA
S11300D061E082E00E9409028FEC97E00197F1F75A
S11300E000C0000060E082E00E9409028FEC97E00B
S11300F00197F1F700C00000C3FB662760F986E0B2
S11301000E940902C2FB662760F985E00E94090289
S1130110C1FB662760F984E00E9409026C2F6170BC
S113012083E00E94090261E082E00E9409028FECF0
S113013097E00197F1F700C0000060E082E00E94C0
S113014009028FEC97E00197F1F700C00000CF910E
S11301500895CF93C82F61E081E00E9409026C2FBB
S1130160661F6627661F86E00E940902C6FB662793
S113017060F985E00E940902C5FB662760F984E006
S11301800E940902C4FB662760F983E00E94090209
S113019061E082E00E9409028FEC97E00197F1F799
S11301A000C0000060E082E00E9409028FEC97E04A
S11301B00197F1F700C00000C3FB662760F986E0F1
S11301C00E940902C2FB662760F985E00E940902C9
S11301D0C1FB662760F984E00E9409026C2F6170FC
S11301E083E00E94090261E082E00E9409028FEC30
S11301F097E00197F1F700C0000060E082E00E9400
S113020009028FEC97E00197F1F700C00000CF914D
S113021008952FE788E391E0215080409040E1F772
S113022000C0000082E00E94490088E20E94490068
S11302308CE00E94490081E00E9449008FEC97E025
S11302400197F1F700C0000086E00C9449000F9379
S11302501F93CF938C01C0E0F801EC0FF11D808156
S1130260882321F00E94A900CF5FF6CFCF911F9180
S11302700F910895811103C0862F806804C08130D6
S113028021F480EC860F0C944900089581E00C94CD
S1130290490062E083E00E94680382E00E948803D0
S11302A062E083E00E94A30382E00E94FA0382E0FA
S11302B00E94DF038FEF90E097BD86BD089590E024
S11302C0FC01EE0FFF1F8E0F9F1FFC01EE58FF4F26
S11302D0808190E09BBD8ABD818190E099BD88BDFD
S11302E082818CBF08951F93CF93DF93DC0120E0BC
S11302F030E080E090E0432F50E0FD01E40FF51F73
S11303001081112361F0EB01E881F981E40FF51FFD
S11303108081181312C03F5F81E090E0ECCFEB01C5
S1130320E881F981E40FF51FE081E111ECCF813020
S1130330910519F42093FD0007C02F5F6E5F7F4F76
S11303402930B1F680E090E0DF91CF911F910895BC
S11303500E948A020E9409010E9449010E94150418
S113036062E080E00E943A018DE890E00E9427015B
S11303708EEF90E00E941F040E941B048093FC00F7
S113038066E081E00E943A018EEF90E00E9427012E
S11303908AE990E00E94270160E670E08EEF90E029
S11303A00E947301892B81F08091FD0090E00E94EE
S11303B05F0180E0E82FF0E0E250FF4F9081992345
S11303C079F210828F5FF6CF0E94460160E080E0F0
S11303D00E943A0181EA90E00E9427018AE990E0B4
S11303E00E9427012FEF89E698E121508040904038
S11303F0E1F700C000000E94460180E0E82FF0E031
S1130400E250FF4F9081992309F4AACF10828F5FA5
S1130410F5CF982F96959695969587706130C1F58E
S1130420913091F028F09230D9F0933029F1089569
S11304304BB321E030E0B90102C0660F771F8A9503
S1130440E2F7CB01842B3AC048B321E030E0B90194
S113045002C0660F771F8A95E2F7CB01842B3CC05C
S113046045B321E030E0B90102C0660F771F8A95D9
S1130470E2F7CB01842B3EC042B321E030E0B90166
S113048002C0660F771F8A95E2F7CB01842B40C028
S113049061113FC09130A1F028F09230F9F093300F
S11304A059F108954BB321E030E0B90102C0660F61
S11304B0771F8A95E2F7CB01809584238BBB08953F
S11304C048B321E030E0B90102C0660F771F8A9576
S11304D0E2F7CB018095842388BB089545B321E0DE
S11304E030E0B90102C0660F771F8A95E2F7CB01AD
S11304F08095842385BB089542B321E030E0B9019F
S113050002C0660F771F8A95E2F7CB01809584239A
S113051082BB0895EBEDF0E040E081E090E0519182
S1130520342F369536953695242F2770513009F49B
S113053043C020F0523009F482C0C5C0323001F10A
S1130540333061F1313071F05AB3BC0102C0660F2F
S1130550771F2A95E2F79B01352F322B3ABB3BB329
S113056020953DC057B3BC0102C0660F771F2A9582
S1130570E2F79B01352F322B37BB38B320953EC0B1
S113058054B3BC0102C0660F771F2A95E2F79B01A2
S1130590352F322B34BB35B320953FC051B3BC014A
S11305A002C0660F771F2A95E2F79B01352F322B85
S11305B031BB32B3209541C0323011F1333081F177
S11305C0313079F05AB3BC0102C0660F771F2A9507
S11305D0E2F79B012095352F32233ABB3BB323230B
S11305E042C057B3BC0102C0660F771F2A95E2F7D9
S11305F09B012095352F322337BB38B3232343C0C7
S113060054B3BC0102C0660F771F2A95E2F79B0121
S11306102095352F322334BB35B3232325BB53C058
S113062051B3BC0102C0660F771F2A95E2F79B0104
S11306302095352F322331BB32B3232343C03230CC
S113064021F1333089F1313081F05AB3BC0102C059
S1130650660F771F2A95E2F79B01362F30953523D5
S11306603ABB3BB3232B2BBB2EC057B3BC0102C0F8
S1130670660F771F2A95E2F79B01362F30953523B5
S113068037BB38B3232B28BB1EC054B3BC0102C0F4
S1130690660F771F2A95E2F79B01362F3095352395
S11306A034BB35B3232BBACF51B3BC0102C0660FA0
S11306B0771F2A95E2F79B01362F3095352331BBFE
S11306C032B3232B22BB4F5F403209F028CF089569
S11306D0813059F038F0823071F0833091F483B76F
S11306E080640BC083B78F7B02C083B7806483BFF1
S11306F083B7877F05C083B78F7B83BF83B7886049
S113070083BF83B7887F83BF83B7682B63BF089594
S1130710813049F028F0823061F0833069F0089527
S113072083B78F7E02C083B7806183BF83B78F7D19
S113073008C083B78F7E02C083B7806183BF83B74D
S1130740806283BF08958230D9F050F4882379F011
S1130750813071F58FB58E7F8FBD8FB58D7F21C0B0
S11307608330D1F0843021F58FB5816017C08FB507
S11307708E7F8FBD8FB58D7F8FBD8EB5877F08C06F
S11307808FB58E7F8FBD8FB58D7F8FBD8EB5886001
S11307908EBD8EB58F7E0BC08FB58E7F8FBD8FB50E
S11307A082608FBD8EB588608EBD8EB580618EBD32
S11307B08EB5887F8EBD8EB5682B6EBD0895813051
S11307C049F028F0823061F0833069F008958FB5E4
S11307D08F7B02C08FB580648FBD8FB58F7708C0C3
S11307E08FB58F7B02C08FB580648FBD8FB5806855
S11307F08FBD0895813049F028F0823061F0833054
S113080069F008958FB58F7E02C08FB580618FBD6A
S11308108FB58F7D08C08FB58F7E02C08FB5806184
S11308208FBD8FB580628FBD089583E389B95998D0
S1130830539A549A08955F9BFECF8CB10895EF921A
S1130840FF920F931F93CF938C010E941B04F80116
S11308508083C0E0F801EC0FF11D80818D3049F0F8
S1130860CF5F7801EC0EF11C0E941B04F70180831A
S1130870F1CF1082CF911F910F91FF90EF900895C7
S1070880F894FFCF16
S1130884A700AB00C400B100B800BE00C900CE008C
S1130894D500FF000000FF000000FF64C800C896F4
S11308A49600503C64003C141EC8000A14454E547F
S11308B4455220434F4C4F5220002020202020201A
S11308C4006572726F720052454400475245454EAA
S11308D40059454C4C4F57005748495445004C491E
S11308E447485420424C55450050494E4B005055FE
S11308F452504C4500424C41434B0001000000005F
S113090400000100000000000000000202020200D6
S10F0914000000020202020000010200C8
S9030000FC
